:020000040800F2
:10000000000002205D1D0008411800084318000888
:1000100045180008471800084918000800000000AB
:100020000000000000000000000000009123000814
:100030004B1800080000000031240008AF1D000824
:10004000AD1D0008AD1D0008AD1D0008AD1D000868
:10005000AD1D0008AD1D0008AD1D0008AD1D000858
:10006000AD1D0008AD1D0008AD1D0008AD1D000848
:100070004D180008AD1D00085D180008AD1D0008F2
:100080006D1800087D180008AD1D00088D180008C7
:100090009D180008AD180008AD1D0008AD1D000832
:1000A000AD1D0008BD180008AD1D0008AD1D0008FD
:1000B000AD1D0008AD1D0008AD1D0008AD1D0008F8
:1000C000AD1D0008AD1D0008AD1D0008AD1D0008E8
:1000D000AD1D0008CD180008F1180008011900082E
:1000E000AD1D0008AD1D0008AD1D0008AD1D0008C8
:1000F000AD1D0008AD1D0008AD1D0008AD1D0008B8
:10010000AD1D0008AD1D0008AD1D0008AD1D0008A7
:10011000AD1D0008AD1D0008AD1D0008AD1D000897
:10012000AD1D0008AD1D000811190008AD1D000827
:10013000AD1D0008AD1D0008AD1D0008AD1D000877
:10014000AD1D0008AD1D0008AD1D0008AD1D000867
:10015000AD1D0008AD1D000821190008AD1D0008E7
:10016000AD1D0008AD1D0008AD1D0008AD1D000847
:10017000AD1D0008AD1D0008AD1D00080000000009
:08018000AD1D0008AD1D0008D3
:1001C00081F0004102E000BF83F0004330B54FEA08
:1001D00041044FEA430594EA050F08BF90EA020F75
:1001E0001FBF54EA000C55EA020C7FEA645C7FEA08
:1001F000655C00F0E2804FEA5454D4EB5555B8BF2B
:100200006D420CDD2C4480EA020281EA030382EA9B
:10021000000083EA010180EA020281EA0303362D2D
:1002200088BF30BD11F0004F4FEA01314FF4801C00
:100230004CEA113102D0404261EB410113F0004F12
:100240004FEA03334CEA133302D0524263EB4303C9
:1002500094EA050F00F0A780A4F10104D5F1200E67
:100260000DDB02FA0EFC22FA05F2801841F10001C2
:1002700003FA0EF2801843FA05F359410EE0A5F196
:1002800020050EF1200E012A03FA0EFC28BF4CF0C7
:10029000020C43FA05F3C01851EBE37101F000457D
:1002A00007D54FF0000EDCF1000C7EEB00006EEB8A
:1002B0000101B1F5801F1BD3B1F5001F0CD3490814
:1002C0005FEA30004FEA3C0C04F101044FEA44526B
:1002D00012F5800F80F09A80BCF1004F08BF5FEAF2
:1002E000500C50F1000041EB045141EA050130BDD2
:1002F0005FEA4C0C404141EB0101013C28BFB1F5E4
:10030000801FE9D291F0000F04BF01460020B1FA2E
:1003100081F308BF2033A3F10B03B3F120020CDA01
:100320000C3208DD02F1140CC2F10C0201FA0CF0DF
:1003300021FA02F10CE002F11402D8BFC2F1200C44
:1003400001FA02F120FA0CFCDCBF41EA0C019040FA
:10035000E41AA2BF01EB0451294330BD6FEA040443
:100360001F3C1CDA0C340EDC04F11404C4F120022E
:1003700020FA04F001FA02F340EA030021FA04F340
:1003800045EA030130BDC4F10C04C4F1200220FA97
:1003900002F001FA04F340EA0300294630BD21FAD5
:1003A00004F0294630BD94F0000F83F4801306BF9B
:1003B00081F480110134013D4EE77FEA645C18BF8F
:1003C0007FEA655C29D094EA050F08BF90EA020F26
:1003D00005D054EA000C04BF1946104630BD91EA1E
:1003E000030F1EBF0021002030BD5FEA545C05D121
:1003F0004000494128BF41F0004130BD14F5800460
:100400003CBF01F5801130BD01F0004545F0FE41D3
:1004100041F470014FF0000030BD7FEA645C1ABF08
:10042000194610467FEA655C1CBF0B46024650EA3F
:10043000013406BF52EA033591EA030F41F400216B
:1004400030BD00BF90F0000F04BF0021704730B5F1
:100450004FF4806404F132044FF000054FF00001C6
:1004600050E700BF90F0000F04BF0021704730B587
:100470004FF4806404F1320410F0004548BF40425C
:100480004FF000013EE700BF42004FEAE2014FEAB1
:1004900031014FEA02701FBF12F07F4393F07F4F8C
:1004A00081F06051704732F07F4208BF704793F08F
:1004B0007F4F04BF41F40021704730B54FF46074A2
:1004C00001F0004521F000411CE700BF50EA0102A5
:1004D00008BF704730B54FF000050AE050EA01024E
:1004E00008BF704730B511F0004502D5404261EBBE
:1004F00041014FF4806404F132045FEA915C3FF4FF
:10050000D8AE4FF003025FEADC0C18BF03325FEA9B
:10051000DC0C18BF033202EBDC02C2F1200300FA4C
:1005200003FC20FA02F001FA03FE40EA0E0021FA71
:1005300002F11444BDE600BF70B54FF0FF0C4CF45F
:10054000E06C1CEA11541DBF1CEA135594EA0C0F11
:1005500095EA0C0F00F0DEF82C4481EA030621EA4C
:100560004C5123EA4C5350EA013518BF52EA033587
:1005700041F4801143F4801338D0A0FB02CE4FF039
:100580000005E1FB02E506F00042E0FB03E54FF069
:100590000006E1FB03569CF0000F18BF4EF0010E61
:1005A000A4F1FF04B6F5007F64F5407404D25FEA5D
:1005B0004E0E6D4146EB060642EAC62141EA555110
:1005C0004FEAC52040EA5E504FEACE2EB4F1FD0C52
:1005D00088BFBCF5E06F1ED8BEF1004F08BF5FEAD0
:1005E000500E50F1000041EB045170BD06F0004682
:1005F00046EA010140EA020081EA0301B4EB5C042F
:10060000C2BFD4EB0C0541EA045170BD41F4801126
:100610004FF0000E013C00F3AB8014F1360FDEBF4B
:10062000002001F0004170BDC4F10004203C35DA27
:100630000C341BDC04F11404C4F1200500FA05F3AA
:1006400020FA04F001FA05F240EA020001F000424B
:1006500021F0004110EBD37021FA04F642EB0601C1
:100660005EEA430E08BF20EAD37070BDC4F10C04EB
:10067000C4F1200500FA04F320FA05F001FA04F2AF
:1006800040EA020001F0004110EBD37041F100019B
:100690005EEA430E08BF20EAD37070BDC4F12005A6
:1006A00000FA05F24EEA020E20FA04F301FA05F20E
:1006B00043EA020321FA04F001F0004121FA04F2B6
:1006C00020EA020000EBD3705EEA430E08BF20EA86
:1006D000D37070BD94F0000F0FD101F000464000C0
:1006E00041EB010111F4801F08BF013CF7D041EA42
:1006F000060195F0000F18BF704703F00046520046
:1007000043EB030313F4801F08BF013DF7D043EA16
:100710000603704794EA0C0F0CEA135518BF95EACC
:100720000C0F0CD050EA410618BF52EA4306D1D153
:1007300081EA030101F000414FF0000070BD50EA72
:10074000410606BF1046194652EA430619D094EAFC
:100750000C0F02D150EA013613D195EA0C0F05D1E6
:1007600052EA03361CBF104619460AD181EA03013A
:1007700001F0004141F0FE4141F470014FF00000F2
:1007800070BD41F0FE4141F4780170BD70B54FF08D
:10079000FF0C4CF4E06C1CEA11541DBF1CEA13550D
:1007A00094EA0C0F95EA0C0F00F0A7F8A4EB0504EF
:1007B00081EA030E52EA03354FEA013100F08880E6
:1007C0004FEA03334FF0805545EA131343EA1263AF
:1007D0004FEA022245EA111545EA10654FEA002664
:1007E0000EF000419D4208BF964244F1FD0404F51D
:1007F000407402D25B084FEA3202B61A65EB030579
:100800005B084FEA32024FF480104FF4002CB6EB35
:10081000020E75EB030E22BFB61A754640EA0C00B5
:100820005B084FEA3202B6EB020E75EB030E22BFF5
:10083000B61A754640EA5C005B084FEA3202B6EB36
:10084000020E75EB030E22BFB61A754640EA9C00F5
:100850005B084FEA3202B6EB020E75EB030E22BFC5
:10086000B61A754640EADC0055EA060E18D04FEA83
:10087000051545EA16754FEA06164FEAC30343EA23
:1008800052734FEAC2025FEA1C1CC0D111F4801FF0
:100890000BD141EA00014FF000004FF0004CB6E7E9
:1008A00011F4801F04BF01430020B4F1FD0C88BF88
:1008B000BCF5E06F3FF6AFAEB5EB030C04BFB6EB93
:1008C000020C5FEA500C50F1000041EB045170BD86
:1008D0000EF0004E4EEA113114EB5C04C2BFD4EBB3
:1008E0000C0541EA045170BD41F480114FF0000E37
:1008F000013C90E645EA060E8DE60CEA135594EAB3
:100900000C0F08BF95EA0C0F3FF43BAF94EA0C0FB5
:100910000AD150EA01347FF434AF95EA0C0F7FF42A
:1009200025AF104619462CE795EA0C0F06D152EA7E
:1009300003353FF4FDAE1046194622E750EA410662
:1009400018BF52EA43067FF4C5AE50EA41047FF473
:100950000DAF52EA43057FF4EBAE12E74FF0FF3CD8
:1009600006E000BF4FF0010C02E000BF4FF0010CA9
:100970004DF804CD4FEA410C7FEA6C5C4FEA430C22
:1009800018BF7FEA6C5C1BD001B050EA410C0CBF71
:1009900052EA430C91EA030F02BF90EA020F0020D3
:1009A000704710F1000F91EA030F58BF994208BF3A
:1009B00090422CBFD8176FEAE37040F001007047F7
:1009C0004FEA410C7FEA6C5C02D150EA013C07D14E
:1009D0004FEA430C7FEA6C5CD6D152EA033CD3D099
:1009E0005DF8040B704700BF8446104662468C4693
:1009F0001946634600E000BF01B5FFF7B7FF0028C6
:100A000048BF10F1000F01BD4DF808EDFFF7F4FFEE
:100A10000CBF012000205DF808FB00BF4DF808ED79
:100A2000FFF7EAFF34BF012000205DF808FB00BF9C
:100A30004DF808EDFFF7E0FF94BF012000205DF8BE
:100A400008FB00BF4DF808EDFFF7CEFF94BF012073
:100A500000205DF808FB00BF4DF808EDFFF7C4FF6C
:100A600034BF012000205DF808FB00BF4FEA410CB5
:100A70007FEA6C5C02D150EA013C0AD14FEA430C98
:100A80007FEA6C5C02D152EA033C02D14FF00000D5
:100A900070474FF0010070474FEA410212F5001213
:100AA00015D211D56FF47873B3EB625212D94FEAB5
:100AB000C12343F0004343EA505311F0004F23FA9F
:100AC00002F018BF404270474FF00000704750EAF4
:100AD000013005D111F0004008BF6FF000407047B1
:100AE0004FF00000704700BF4FEA4102B2F1E0430F
:100AF00024BFB3F5001CDCF1FE5C0DD901F0004C05
:100B00004FEAC0024CEA5070B2F1004F40EB830054
:100B100008BF20F00100704711F0804F21D113F180
:100B20003872BCBF01F00040704741F480114FEAB9
:100B30005252C2F11802C2F1200C10FA0CF320FA42
:100B400002F018BF40F001004FEAC1234FEAD3235F
:100B500003FA0CFC40EA0C0023FA02F34FEA4303C9
:100B6000CCE77FEA625307D150EA01331EBF4FF052
:100B7000FE4040F44000704701F0004040F0FE406D
:100B800040F40000704700BF53B94AB9002908BFBC
:100B900000281CBF4FF0FF314FF0FF3000F0E2B8EB
:100BA000ADF1080C6DE904CE12F0A2F8DDF804E016
:100BB000DDE9022304B0704700F1340191E8380008
:100BC0009C46A6464CF8045D90E8FF0FE54600BD44
:100BD00090EC210B704700BF80EC210B704700BFE9
:100BE00090EC200B704700BF80EC200B704700BFDB
:100BF000D0EC200B704700BFC0EC200B704700BF4B
:100C0000F0EC0201F0EC0211F0EC0221F0EC023108
:100C1000F0EC0241F0EC0251F0EC0261F0EC0271F8
:100C2000F0EC0281F0EC0291F0EC02A1F0EC02B1E8
:100C3000F0EC02C1F0EC02D1F0EC02E1F0EC02F1D8
:100C4000704700BFE0EC0201E0EC0211E0EC022191
:100C5000E0EC0231E0EC0241E0EC0251E0EC026138
:100C6000E0EC0271E0EC0281E0EC0291E0EC02A128
:100C7000E0EC02B1E0EC02C1E0EC02D1E0EC02E118
:100C8000E0EC02F1704700BFB0FC0181B0FC0191C3
:100C9000B0FC01A1B0FC01B1704700BFA0FC018114
:100CA000A0FC0191A0FC01A1A0FC01B1704700BF14
:100CB000EC4600B52DE900502DE9FF1F4FF0000371
:100CC0002DE90C0001A912F0C5FADDF840E012B0E0
:100CD000704700BFEC4600B52DE900502DE9FF1F1D
:100CE0004FF000032DE90C0001A912F0EFFADDF836
:100CF00040E012B0704700BFEC4600B52DE900504F
:100D00002DE9FF1F4FF000032DE90C0001A912F09F
:100D1000FDFADDF840E012B0704700BFEC4600B5C8
:100D20002DE900502DE9FF1F4FF000032DE90C00C5
:100D300001AB12F0C3FADDF840E012B0704700BF1B
:100D4000EC4600B52DE900502DE9FF1F4FF00003E0
:100D50002DE90C0001AA12F039FBDDF840E012B0D9
:100D6000704700BF704700BF000000000000000097
:100D70000000000000000000000000000000000073
:100D800002780B78012A28BF9A4240F0D8806DE99A
:100D9000044540EA0104CDE902676FF0000C4FEA18
:100DA00044721AB380EA010414F0070F6BD100F00B
:100DB000070420F0070004F0030521F007014FEAC3
:100DC000C505F0E8042314F0040FF1E804670CFAF9
:100DD00005F462EA040266EA04060BD063EA04033F
:100DE000624667EA0407664604E000BFF0E80423B1
:100DF000F1E8046782FA4CF582EA0604A4FA8CF45E
:100E00006CBB83FA4CF583EA0705A5FA8CF595B916
:100E100050E9022351E9026782FA4CF582EA06049E
:100E2000A4FA8CF483FA4CF583EA0705A5FA8CF54D
:100E30002543DBD09CB92DBAB5FA85F424F007041C
:100E400027FA04F1DDE9026723FA04F303F0FF0057
:100E500001F0FF01FDE80445A0EB0100704724BA52
:100E6000B4FA84F424F0070426FA04F1DDE90267F9
:100E700022FA04F202F0FF0001F0FF01FDE8044550
:100E8000A0EB0100704714F0030F3CD110F00304F5
:100E900028D150F8082B51F8083B82FA4CF582EA29
:100EA0000305A5FA8CF55DB950F8042C51F8043C03
:100EB00082FA4CF582EA0305A5FA8CF5002DE8D0FC
:100EC0002DBAB5FA85F424F0070423FA04F122FAC6
:100ED00004F202F0FF0001F0FF01FDE80445A0EB81
:100EE000010070474FEAC40420F0030050F8082BBB
:100EF00021F0030151F8083B0CFA04F462EA040201
:100F000063EA0403C9E710F003041DD0A1EB040158
:100F100020F00300E40750F8042B06D012D28B789F
:100F20005FFAA2F4E41A06D12BB1CB785FFAB2F4DF
:100F3000E41A00D133B920465DF8104B7047A2EB9C
:100F40000300704701F1040150F8042BCC0721F095
:100F5000030151F8043B48D824D222F07F4482FA9E
:100F60004CF594EA1325A5FA8CF50AD165B951F828
:100F7000043B84EA0204B4EB036F0ED150F8042B57
:100F8000EBE74FEA132355E035F07F454DD1087864
:100F9000FDE80445C0F1000070474FEA126203F01B
:100FA000FF0347E002EA1C4482FA4CF594EA134539
:100FB000A5FA8CF50AD165B951F8043B84EA02041C
:100FC000B4EB034F0CD150F8042BEBE74FEA13437B
:100FD00030E015EA1C4528D10B884FEA124229E07F
:100FE0004FEA124203EA1C4324E002F0FF0482FAB3
:100FF0004CF594EA1365A5FA8CF50AD165B951F858
:10100000043B84EA0204B4EB032F09D150F8042B0B
:10101000EBE74FEA13630DE015F0FF0F05D10B6806
:101020004FEA122223F07F4304E04FF00000FDE876
:101030000445704712BA1BBA82FA4CF482EA0304E0
:10104000A4FA8CF5B5FA85F402FA04F203FA04F373
:101050004FEA1260FDE80445A0EB1360704700BF43
:1010600001F0FF01102A2BDB10F0070F08D010F859
:10107000013B013A8B422DD010F0070F42B3F6D15D
:10108000F0B441EA012141EA014122F007047FF076
:1010900000070023F0E80256083C85EA010586EACD
:1010A000010685FA47F5A3FA87F586FA47F6A5FA09
:1010B00087F68EB9EED1F0BC01F0FF0102F0070215
:1010C00032B110F8013B013A83EA010313B1F8D1C0
:1010D0000020704701387047002D06BF35460338A1
:1010E000073815F0010F07D1013015F4807F02BFDA
:1010F000013015F4C03F0130F0BC0138704700BF2B
:10110000844641EA000313F003036DD1403A41D312
:1011100051F8043B40F8043B51F8043B40F8043BD1
:1011200051F8043B40F8043B51F8043B40F8043BC1
:1011300051F8043B40F8043B51F8043B40F8043BB1
:1011400051F8043B40F8043B51F8043B40F8043BA1
:1011500051F8043B40F8043B51F8043B40F8043B91
:1011600051F8043B40F8043B51F8043B40F8043B81
:1011700051F8043B40F8043B51F8043B40F8043B71
:1011800051F8043B40F8043B51F8043B40F8043B61
:10119000403ABDD2303211D351F8043B40F8043B01
:1011A00051F8043B40F8043B51F8043B40F8043B41
:1011B00051F8043B40F8043B103AEDD20C3205D311
:1011C00051F8043B40F8043B043AF9D2043208D009
:1011D000D2071CBF11F8013B00F8013B01D30B887B
:1011E00003806046704700BF082A13D38B078DD059
:1011F00010F003038AD0C3F10403D21ADB071CBF2B
:1012000011F8013B00F8013B80D331F8023B20F894
:10121000023B7BE7043AD9D3013A11F8013B00F8CD
:10122000013BF9D20B7803704B7843708B78837055
:101230006046704700000000000000000000000051
:1012400030B490F800F020F007016FF0000C10F0BF
:10125000070491F820F040F048804FF000046FF050
:101260000700D1E9002391F840F000F1080082FA6C
:101270004CF2A4FA8CF283FA4CF3A2FA8CF34BBB37
:10128000D1E9022382FA4CF200F10800A4FA8CF2B0
:1012900083FA4CF3A2FA8CF3E3B9D1E9042382FA7E
:1012A0004CF200F10800A4FA8CF283FA4CF3A2FA93
:1012B0008CF37BB9D1E9062301F1200182FA4CF2CB
:1012C00000F10800A4FA8CF283FA4CF3A2FA8CF332
:1012D000002BC6D0002A04BF04301A4612BAB2FA54
:1012E00082F200EBD20030BC7047D1E9002304F059
:1012F0000305C4F100004FEAC50514F0040F91F88E
:1013000040F00CFA05F562EA05021CBF63EA05032A
:1013100062464FF00004AAE70348044B834202D020
:10132000034B03B118477047D4070020D4070020AF
:10133000000000000548064B1B1AD90F01EBA30162
:10134000491002D0034B03B118477047D40700205F
:10135000D40700200000000010B5064C237843B9E4
:10136000FFF7DAFF044B13B10448AFF30080012309
:10137000237010BDD40700200000000054AC010809
:1013800008B5054B1BB105490548AFF30080BDE822
:101390000840FFF7CFBF00BF00000000D8070020C3
:1013A00054AC010808B50E480E4B0360032343609C
:1013B00000238360C3604FF4002202614FF44012A7
:1013C00042610376012242768376C37603774277C1
:1013D00003F05AF900B908BD00F064F9FBE700BF5B
:1013E000F00700200064004010B588B0002303938C
:1013F00004930593069307930268204B9A4201D009
:1014000008B010BD0024019403F5EA331A6C42F0D1
:1014100000721A641A6C02F000720192019A02942E
:101420001A6B42F008021A631B6B03F00803029365
:10143000029B03230393022204920693092307933A
:1014400003A90F4803F0D6FF22460521132003F01D
:1014500049FD132003F056FD22460521142003F018
:1014600041FD142003F04EFD22460521152003F016
:1014700039FD152003F046FDC2E700BF00640040BF
:10148000000C024010B582B000240094224B1A6B6D
:1014900042F480021A631A6B02F480020092009AEE
:1014A00001941A6B42F400121A631B6B03F40013CD
:1014B0000193019B224605210C2003F013FD0C2013
:1014C00003F020FD224605210E2003F00BFD0E2027
:1014D00003F018FD22460521102003F003FD102023
:1014E00003F010FD22460521112003F0FBFC112022
:1014F00003F008FD224605213A2003F0F3FC3A20D0
:1015000003F000FD22460521462003F0EBFC4620B7
:1015100003F0F8FC02B010BD00380240FEE7000006
:1015200010B582B0002300930193164C012211469E
:10153000204607F0DDFD01221146204607F0EAFDB6
:101540000A2411E002AA02EB430131F8082C2244DC
:1015500021F8082C0133032BF4DD01210A4804F0A3
:1015600045F8642000F0C6FCBDF90030632B01DDB6
:10157000644224B2642301221146024807F0DCFDD4
:101580000023E8E7F00700200004024008B505F05A
:10159000C3F9074A0021074800F04EFC064B1860CB
:1015A000064A0021064800F047FC064B186008BDBB
:1015B000B8AC01081D1500081C08002094AC0108F7
:1015C0002115000818080020F0B58BB00024059400
:1015D00006940794089409940094294B1A6B42F0DE
:1015E00080021A631A6B02F080020092009A019442
:1015F0001A6B42F001021A631A6B02F001020192A7
:10160000019A02941A6B42F004021A631A6B02F0F8
:1016100004020292029A03941A6B42F002021A63C5
:101620001A6B02F002020392039A04941A6B42F0BE
:1016300008021A631B6B03F008030493049B114F09
:1016400022463021384603F0CBFF0F4E22460121BF
:10165000304603F0C5FF3023059301250695079416
:10166000089405A9384603F0C5FE0595069507942C
:10167000089405A9304603F0BDFE0BB0F0BD00BFD5
:1016800000380240000802400004024008B5026829
:10169000034B9A4200D008BD02F0E4FFFBE700BF15
:1016A0000000014072B6FEE700B595B0302200217F
:1016B00008A815F03DF800230393049305930693BF
:1016C00007930193204A116C41F080511164126C10
:1016D00002F080520192019A02931C4B1A6842F464
:1016E00080421A601B6803F480430293029B01232B
:1016F00008934FF48033099302220E924FF4800333
:101700000F9304231093A82111911292139308A808
:1017100003F076FF98B90F23039302230493002369
:1017200005934FF4A05306934FF48053079305217C
:1017300003A804F0CFF920B915B05DF804FBFFF75A
:10174000B1FFFFF7AFFF00BF00380240007000405C
:1017500008B502F06DFFFFF7A7FFFFF735FFFFF7B2
:1017600091FE00F04DF9FFF71DFE00F07DF900F04D
:1017700061F900F029FBFFF709FF00F037FBFEE7F6
:1017800000B583B0002200920D4B596C41F48041AA
:101790005964596C01F48041009100990192196CCF
:1017A00041F0805119641B6C03F080530193019B3D
:1017B0000F216FF0010003F095FB03B05DF804FB0F
:1017C0000038024010B588B001460022192003F00D
:1017D00089FB192003F096FB00240194144B5A6CEA
:1017E00042F001025A645B6C03F001030193019B18
:1017F00002A903A804F044FA04F032FA43000D4AA7
:10180000A2FB03239B0C013B0B480C4A026040F2F5
:10181000E732C26043600461846004F0BBFB10B136
:10182000012008B010BD044804F04AFAF9E700BFEF
:101830000038024083DE1B432008002000000140E6
:10184000FEE7FEE7FEE7FEE7FEE7704708B5024861
:1018500003F0DEFC08BD00BFCC08002008B502483C
:1018600003F0D6FC08BD00BF6C08002008B5024894
:1018700003F0CEFC08BD00BF8C09002008B502486B
:1018800003F0C6FC08BD00BF2C09002008B50248C3
:1018900003F0BDF908BD00BFF007002008B50248FD
:1018A00003F0B5F908BD00BFF007002008B50248F5
:1018B00003F0ADF908BD00BFF007002008B50248ED
:1018C00004F046FA08BD00BF2008002008B5074B09
:1018D0001B681B6813F0100F03D0044805F0CEFD01
:1018E00008BD024804F0D8FDFAE700BF340B002021
:1018F00008B5024804F0D0FD08BD00BFF00A002082
:1019000008B5024804F0C8FD08BD00BFAC0A0020BD
:1019100008B5024803F07CFC08BD00BF4C0A00205B
:1019200008B5024803F074FC08BD00BFEC090020B4
:101930000120704708B515F091FA162303604FF0A7
:10194000FF3008BD08B54FF0FF31FFF7F3FFFEE7AA
:1019500070B50C461646002506E0AFF30080214620
:1019600001F8010B01350C46B542F6DB304670BD7F
:1019700070B50C461646002504E014F8010BAFF3D1
:1019800000800135B542F8DB304670BD4FF0FF30C6
:1019900070474FF400534B600020704701207047A0
:1019A0000020704710B503460C4A0D490D480068E9
:1019B00040B10C4800680344521A934206D8094AC1
:1019C000136010BD0748084C0460F2E715F046FAB2
:1019D0000C2303604FF0FF30F3E700BF000002204C
:1019E0000004000068080020A86A0020034AD2F81A
:1019F000883043F47003C2F88830704700ED00E08F
:101A000008B50A480A4B03604FF4E13343600023F2
:101A10008360C36003610C2242618361C36104F08F
:101A2000DDFB00B908BDFFF73DFEFBE7340B0020EE
:101A30000010014008B50A480A4B03604FF4E13337
:101A4000436000238360C36003610C2242618361B1
:101A5000C36104F0C3FB00B908BDFFF723FEFBE739
:101A6000F00A00200044004008B50A480A4B036011
:101A70004FF4E133436000238360C36003610C22B1
:101A800042618361C36104F0A9FB00B908BDFFF79F
:101A900009FEFBE7AC0A00200048004030B58DB0DD
:101AA000044600230793089309930A930B93036852
:101AB000984A934208D0984A934267D0974A9342F3
:101AC00000F0C5800DB030BD00250195944B5A6CD7
:101AD00042F010025A645A6C02F010020192019A0C
:101AE00002951A6B42F001021A631B6B03F00103AB
:101AF0000293029B4FF4C0630793022308930323CE
:101B00000A9307230B9307A9864803F073FC8648C2
:101B1000864B03604FF0006343608560C5604FF4FF
:101B200080630361456185614FF48073C361056221
:101B3000456203F075FA18BB7B4BA3639C637C483A
:101B40007C4B03604FF000634360402383600023BD
:101B5000C3604FF48062026143618361C3610362C9
:101B6000436203F05DFA70B9714B63639C630022BA
:101B70000521252003F0B6F9252003F0C3F9A1E7DC
:101B8000FFF790FDD8E7FFF78DFDEDE70025039502
:101B9000634B1A6C42F400321A641A6C02F400327D
:101BA0000392039A04951A6B42F001021A631B6BAD
:101BB00003F001030493049B0C230793022308936F
:101BC00003230A9307230B9307A9564803F012FC3B
:101BD00059485A4B03604FF0006343608560C5600D
:101BE0004FF480630361456185614FF48073C36185
:101BF0000562456203F014FA18BB4F4BA3639C6364
:101C00004F48504B03604FF00063436040238360B4
:101C10000023C3604FF48062026143618361C3614A
:101C20000362436203F0FCF970B9454B63639C6344
:101C300000220521262003F055F9262003F062F941
:101C400040E7FFF72FFDD8E7FFF72CFDEDE7002574
:101C50000595334B1A6C42F480221A641A6C02F414
:101C600080220592059A06951A6B42F002021A63C9
:101C70001B6B03F002030693069B4FF4406307932C
:101C80000223089303230A9307230B9307A92E48E3
:101C900003F0B0FB2D482E4B03604FF00063436010
:101CA0008560C5604FF480630361456185614FF4D1
:101CB0008073C3610562456203F0B2F918BB234B20
:101CC000A3639C632348244B03604FF0006343608D
:101CD000402383600023C3604FF48062026143614C
:101CE0008361C3610362436203F09AF970B9194BCF
:101CF00063639C6300220521272003F0F3F827206B
:101D000003F000F9DEE6FFF7CDFCD8E7FFF7CAFCE9
:101D1000EDE700BF001001400044004000480040D3
:101D200000380240000002404C0A0020406402409B
:101D3000EC090020B86402408C0900208860024051
:101D40002C090020A060024000040240CC080020C2
:101D5000286002406C08002058600240DFF834D050
:101D60000D480E490E4A002302E0D458C4500433F3
:101D7000C4188C42F9D30B4A0B4C002301E01360CA
:101D80000432A242FBD3FFF731FE15F06DF8FFF7E6
:101D9000DFFC70470000022000000020D407002074
:101DA00048D60108D4070020A86A0020FEE708B53D
:101DB0004FF0E0231B6902F0B1F8012800D108BD03
:101DC00000F068FBFBE70000EFF305832BB9064B3F
:101DD000186828B901221A6070476FF00500704733
:101DE0004FF0FF30704700BF30120020EFF3058343
:101DF00073B90A4B1B68012B0DD110B50024084B99
:101E0000DC77064B02221A6001F01AFD204610BD55
:101E10006FF0050070474FF0FF3070473012002020
:101E200000ED00E008B5EFF3058313B101F062FDAA
:101E300008BD01F059FDFBE7F0B587B0002405941B
:101E4000EFF3058474BB68B322B31568936903B9D3
:101E500018235C1E372C49D8546814F0010F47D161
:101E600056696EB14FEA960C94682CB1D7685B2F17
:101E700002D9176907B1C6B92CB14FF0FF340EE093
:101E80004FF0800CF0E7D4688CB9146994B14FF02E
:101E9000FF3404E01546002418234FF0800C012C79
:101EA0000AD0ACB1059807B0F0BD0124F7E74FF0B8
:101EB000FF34F4E70024F2E7146992680292019477
:101EC00000930B466246294601F005FC0590E9E7C0
:101ED00005AA019200930B461FFA8CF2294601F0E5
:101EE00035FC0128DED000230593DBE70020DAE78C
:101EF0000020D8E708B5EFF3058333B908B900200F
:101F000008BD01F007FE0020FAE76FF00500F7E7D3
:101F100070B582B0EFF30583002B48D10E4614460E
:101F2000002848D0884248D34AB1956815B1D36893
:101F30004F2B14D8002D42D1E3680BB138E00023B9
:101F400001280ED06BBB314600F03EFE05467DB346
:101F500004B124682146284601F0B2F928E00123A3
:101F6000EEE7ABB903220021012000F0E6FD0546B3
:101F7000F5B1002EEBD000231A461946284600F092
:101F800041FE0128E3D0284601F0C4F900250FE006
:101F9000A368032200920022114600F084FD05464A
:101FA000E6E7A268314600F0ECFD0546CFE70025E4
:101FB000284602B070BD0025FAE70025F8E70025A5
:101FC000F6E720B310B582B00C46EFF30583B3B14A
:101FD00001BB0021019101AA01F01AF901281CD1CD
:101FE000019850B14FF0E0234FF08052C3F8042D18
:101FF000BFF34F8FBFF36F8F002002B010BD01F011
:1020000034F801280CD06CB16FF00100F5E76FF0E7
:10201000030070476FF00300EFE76FF00200ECE79A
:102020000020EAE76FF00200E7E720B300B583B0D5
:10203000EFF30583A3B10023019301A900F00DFF85
:1020400001281BD1019898B14FF0E0234FF0805246
:10205000C3F8042DBFF34F8FBFF36F8F002007E04D
:1020600000231A46194600F0CDFD012809D10020B1
:1020700003B05DF804FB6FF0030070476FF00200DF
:10208000F6E76FF00200F3E770B582B0EFF3058377
:10209000002B3AD1144600283BD000293BD06AB32C
:1020A00093684BB1D2684F2A06D9226922B101FB4D
:1020B00000F56669AE421BD273B14FF0FF3363BBCC
:1020C000002200F03AFD054605B304B1246821461C
:1020D000284601F0F5F819E0E3688BB9236913B1DC
:1020E0004FF0FF33EBE763696BB14FF0FF33E6E787
:1020F0000025009500F0D7FC0546E5E70023DEE764
:102100004FF0FF33DBE70023D9E70025284602B074
:1021100070BD0025FAE70025F8E70025F6E710B5C1
:1021200082B01C46EFF30583C3B118B329B33CBB9F
:102130000023019301AA00F029FE012823D1019870
:1021400050B14FF0E0234FF08052C3F8042DBFF39D
:102150004F8FBFF36F8F002002B010BDB0B1C1B17F
:102160000023224600F04EFD012815D0B4B16FF0D7
:102170000100F1E76FF00300EEE76FF00300EBE71B
:102180006FF00300E8E76FF00200E5E76FF003008F
:10219000E2E76FF00300DFE70020DDE76FF0020009
:1021A000DAE710B582B01C46EFF30583C3B110B374
:1021B00021B334BB0023019301AA01F029F80128BF
:1021C00022D1019850B14FF0E0234FF08052C3F874
:1021D000042DBFF34F8FBFF36F8F002002B010BDEF
:1021E000A8B1B9B1224600F091FE012815D0B4B1D2
:1021F0006FF00100F2E76FF00300EFE76FF003000C
:10220000ECE76FF00300E9E76FF00200E6E76FF03C
:102210000300E3E76FF00300E0E70020DEE76FF084
:102220000200DBE7034B0360034B0B60802313606A
:10223000704700BFD4110020D40F0020034B03606F
:10224000034B0B604FF4807313607047780F0020CE
:10225000780B002000F1080343604FF0FF328260EA
:10226000C36003610023036070470023036170476C
:1022700043684B609A688A6051609960086103689E
:1022800001330360704730B40D68B5F1FF3F11D0E2
:1022900000F108031C465B681A68AA42FAD9636811
:1022A0004B6099608C606160086103680133036072
:1022B00030BC70470469F2E70369416882688A604C
:1022C000416851605A68824206D0002202611A6851
:1022D000013A1A601868704782685A60F5E7000092
:1022E00082B0002301930D4B1B68B3F1FF3F08D070
:1022F0004FF0500383F31188BFF36F8FBFF34F8FFD
:10230000FEE74FF0500383F31188BFF36F8FBFF3E5
:102310004F8F019B002BFCD002B0704708000020BB
:1023200008480068006880F308884FF0000080F3D8
:10233000148862B661B6BFF34F8FBFF36F8F00DFB3
:1023400000BF000008ED00E0DFF80C00016841F478
:10235000700101607047000088ED00E04FF080736D
:1023600040F8043C21F0010140F8081C054B40F8FE
:102370000C3C40F8202C6FF0020340F8243C443819
:10238000704700BFE12200080000000000000000CC
:10239000074B19680868B0E8F04F80F30988BFF36D
:1023A0006F8F4FF0000080F311887047AFF300800B
:1023B000985300204FF0500383F31188BFF36F8FC1
:1023C000BFF34F8F0B4A136801331360012B00D00A
:1023D00070474FF0E023D3F8043D13F0FF0FF7D020
:1023E0004FF0500383F31188BFF36F8FBFF34F8F0C
:1023F000FEE700BF08000020094B1B6843B94FF0FF
:10240000500383F31188BFF36F8FBFF34F8FFEE745
:10241000013B034A13600BB983F31188704700BF77
:102420000800002000000000000000000000000084
:10243000EFF30980BFF36F8F154B1A681EF0100F72
:1024400008BF20ED108A20E9F04F10602DE9090047
:102450004FF0500080F31188BFF34F8FBFF36F8FA1
:1024600001F07EFB4FF0000080F3118809BC196871
:102470000868B0E8F04F1EF0100F08BFB0EC108AEB
:1024800080F30988BFF36F8F704700BFAFF3008000
:102490009853002008B54FF0500383F31188BFF321
:1024A0006F8FBFF34F8F01F02DFA28B14FF0E0236B
:1024B0004FF08052C3F8042D002383F3118808BD28
:1024C0004FF0E022002313619361054B1B6805491F
:1024D000A1FB03139B09013B536107231361704761
:1024E00004000020D34D62104FF0E023D3F8002DFC
:1024F0003D4B9A421CD04FF0E023D3F8002D3B4BCC
:102500009A421ED030B583B0394B1A78D2B20192BC
:10251000FF221A701B78DBB28DF803309DF8033070
:1025200003F05003334A1370334B07221A601BE049
:102530004FF0500383F31188BFF36F8FBFF34F8FBA
:10254000FEE74FF0500383F31188BFF36F8FBFF3A3
:102550004F8FFEE7284A1368013B13609DF8033054
:102560005B00DBB28DF803309DF8033013F0800F71
:10257000F0D1214B1B68032B08D04FF0500383F39D
:102580001188BFF36F8FBFF34F8FFEE71B021A4A0C
:10259000136003F4E0631360019BDBB2144A137011
:1025A0004FF0E024D4F8203D43F47003C4F8203DFC
:1025B000D4F8203D43F07043C4F8203DFFF780FF7E
:1025C00000250E4B1D60FFF7BFFED4F8343F43F0EB
:1025D0004043C4F8343FFFF7A3FE01F0C1FAFFF710
:1025E0007FFE284603B030BD71C20F4170C20F415B
:1025F00000E400E03812002034120020080000201F
:10260000EFF305830F2B0FD9114A9B5CDBB2114A04
:1026100012789A4208D94FF0500383F31188BFF320
:102620006F8FBFF34F8FFEE74FF0E023D3F80C3DE1
:1026300003F4E063084A1268934208D94FF050034C
:1026400083F31188BFF36F8FBFF34F8FFEE770479F
:10265000F0E300E03812002034120020124A12F099
:10266000070F1ED0D11D21F00701C1F5705313448F
:102670000A460E480260002141601344083B23F0E3
:1026800007030B48036059601960991A5160136081
:10269000084B1960084B1960084B4FF000421A6054
:1026A00070474FF47053E4E75C120020541200208E
:1026B00050120020481200204C1200203C12002032
:1026C000164B1A461B688342FBD3516802EB010C80
:1026D000844509D0416800EB010C634509D00360D3
:1026E000904219D010607047406801445160104614
:1026F000F0E710B40A4C2468A3420BD05B6819447D
:10270000416013681B680360904200D010605DF860
:10271000044B70470460F7E7704700BF5412002075
:102720005012002038B5044601F0D6F8384B1B682B
:10273000B3B1384B1B681C4250D1002C50D004F16F
:10274000080214F0070F02D022F007020832002A14
:1027500055D0314B1B68934253D330490C6804E089
:10276000FFF77CFFE5E721461C466368934202D2EF
:102770002368002BF7D1264B1B68A34243D00D687A
:10278000083523680B6063689B1A102B10D9A018BA
:1027900010F0070F08D04FF0500383F31188BFF3F8
:1027A0006F8FBFF34F8FFEE743606260FFF788FFD4
:1027B000626819490B689B1A0B60194909688B42BA
:1027C00001D217490B60134B1B681343636000234E
:1027D0002360144A13680133136002E0002500E00F
:1027E000002501F01BF915F0070F0ED04FF0500334
:1027F00083F31188BFF36F8FBFF34F8FFEE7002580
:10280000EFE70025EDE70025EBE7284638BD00BFE0
:10281000501200203C1200204C12002054120020C4
:102820004812002044120020002834D038B5044655
:10283000A0F1080550F8043C174A1268134208D169
:102840004FF0500383F31188BFF36F8FBFF34F8FA7
:10285000FEE750F8081C41B14FF0500383F3118894
:10286000BFF36F8FBFF34F8FFEE723EA020340F8F9
:10287000043C01F031F854F8041C084A13680B4476
:1028800013602846FFF71CFF054A136801331360E5
:1028900001F0C4F838BD70473C1200204C120020F3
:1028A00040120020014B1868704700BF4C120020F6
:1028B0000346406A18B11B6B1868C0F138007047B6
:1028C00010B50446FFF776FDA26BE36B9A4204D085
:1028D0000024FFF791FD204610BD0124F9E710B553
:1028E0000446FFF767FDA36B23B90124FFF784FDBE
:1028F000204610BD0024F9E770B504461546866BE6
:10290000026C5AB903681BB100200136A66370BD82
:10291000806801F05FFB0023A360F6E76DB94068B3
:10292000FEF7EEFB6368226C13446360A268934277
:1029300019D3236863602846E7E7C068FEF7E0FB29
:10294000E368226C51429B1AE3602268934202D2F0
:10295000A3680B44E360022D01D00020D5E726B127
:10296000013E0020D1E72846CFE70020CDE703460F
:10297000026C6AB110B50846D9681144D9609C68E8
:10298000A14201D31968D960D968FEF7B9FB10BD1F
:10299000704738B50546FFF70DFD95F8454064B220
:1029A00001E0013C64B2002C0ADD6B6A43B105F121
:1029B000240001F055F90028F3D001F0E5F9F0E723
:1029C000FF2385F84530FFF717FDFFF7F3FC95F877
:1029D000444064B201E0013C64B2002C0ADD2B6982
:1029E00043B105F1100001F03BF90028F3D001F0EC
:1029F000CBF9F0E7FF2385F84430FFF7FDFC38BD45
:102A000038B5E0B10D460446FFF7D4FC2368E26B0D
:102A1000216C01FB0230A0600020A0636360013ADA
:102A200002FB0133E360FF2384F8443084F845302F
:102A3000FDB9236963B9FFF7DFFC012038BD4FF012
:102A4000500383F31188BFF36F8FBFF34F8FFEE7FF
:102A500004F1100001F004F90028ECD04FF0E0235D
:102A60004FF08052C3F8042DBFF34F8FBFF36F8F29
:102A7000E1E704F11000FFF7EDFB04F12400FFF79C
:102A8000E9FBD8E738B51D46049C0B4649B92460DC
:102A9000E063236401212046FFF7B2FF84F84C5025
:102AA00038BD2260F4E740B94FF0500383F311883A
:102AB000BFF36F8FBFF34F8FFEE710B584B01C4696
:102AC000844653B192B189B94FF0500383F3118812
:102AD000BFF36F8FBFF34F8FFEE74FF0500383F3C9
:102AE0001188BFF36F8FBFF34F8FFEE76AB150239A
:102AF0000393039B502B13D04FF0500383F31188A3
:102B0000BFF36F8FBFF34F8FFEE70029EFD04FF079
:102B1000500383F31188BFF36F8FBFF34F8FFEE72E
:102B2000039B012384F8463000949DF818306046DA
:102B3000FFF7A8FF204604B010BD40B94FF0500386
:102B400083F31188BFF36F8FBFF34F8FFEE7F0B5AC
:102B500083B00D461446064601FB00F05030FFF7E7
:102B6000E1FD074650B1002380F84630009023462F
:102B700000F1500229463046FFF784FF384603B083
:102B8000F0BD40B94FF0500383F31188BFF36F8F4E
:102B9000BFF34F8FFEE710B582B00C46884208D2D3
:102BA0004FF0500383F31188BFF36F8FBFF34F8F44
:102BB000FEE702230093134600221146FFF773FF3E
:102BC00000B1846302B010BD40B94FF0500383F3ED
:102BD0001188BFF36F8FBFF34F8FFEE710B50C4620
:102BE000884208D24FF0500383F31188BFF36F8FF0
:102BF000BFF34F8FFEE702220021FFF79EFF00B1D7
:102C0000846310BDF0B585B0019288B10F461D46B2
:102C10000446B1B1022D20D1E36B012B1DD04FF042
:102C2000500383F31188BFF36F8FBFF34F8FFEE71D
:102C30004FF0500383F31188BFF36F8FBFF34F8FB3
:102C4000FEE7036C002BE5D04FF0500383F31188AF
:102C5000BFF36F8FBFF34F8FFEE701F05FF90646BA
:102C600058B9019B002B48D04FF0500383F31188D3
:102C7000BFF36F8FBFF34F8FFEE700263DE02A467C
:102C800039462046FFF738FE636A7BB948B14FF0FA
:102C9000E0234FF08052C3F8042DBFF34F8FBFF3F2
:102CA0006F8FFFF7A9FB012005B0F0BD04F12400F0
:102CB00000F0D6FF0028F4D04FF0E0234FF0805210
:102CC000C3F8042DBFF34F8FBFF36F8FE9E7FFF712
:102CD00093FB0020E8E702A801F008F8012619E0BC
:102CE000002384F8443021E0002384F8453023E0B9
:102CF0002046FFF74EFE00F091FEFFF75BFBA26B54
:102D0000E36B9A42BBD3022DB9D0019B002BDED0DE
:102D1000002EE0D0FFF770FB00F0DEFDFFF74AFB6E
:102D200094F8442052B2B2F1FF3FD9D094F8452034
:102D300052B2B2F1FF3FD7D0FFF75EFB01A902A864
:102D400000F0E0FFD8B92046FFF7BAFD0028CFD049
:102D5000019904F1100000F04FFF2046FFF719FE23
:102D600000F05CFE0028C8D14FF0E0234FF0805205
:102D7000C3F8042DBFF34F8FBFF36F8FBDE720461D
:102D8000FFF707FE00F04AFE00208DE72DE9F8432B
:102D900090B10F4616461C460546B1B1022C20D113
:102DA000EB6B012B1DD04FF0500383F31188BFF361
:102DB0006F8FBFF34F8FFEE74FF0500383F31188FF
:102DC000BFF36F8FBFF34F8FFEE7036C002BE5D08F
:102DD0004FF0500383F31188BFF36F8FBFF34F8F12
:102DE000FEE7FFF70DFCEFF311884FF0500383F37C
:102DF0001188BFF36F8FBFF34F8FAA6BEB6B9A42B3
:102E000006D3022C04D0002088F31188BDE8F88393
:102E100095F845904FFA89F9AB6B2246394628461A
:102E2000FFF76AFDB9F1FF3F06D009F101035BB27C
:102E300085F845300120E7E76B6A0BB90120E3E72D
:102E400005F1240000F00CFF18B126B1012030601C
:102E5000DAE70120D8E70120D6E768B170B50C4663
:102E60000546036C8BB14FF0500383F31188BFF319
:102E70006F8FBFF34F8FFEE74FF0500383F311883E
:102E8000BFF36F8FBFF34F8FFEE70368EBB1FFF720
:102E9000B7FBEFF311864FF0500383F31188BFF3B4
:102EA0006F8FBFF34F8FAA6BEB6B934226D995F8C8
:102EB00045305BB20132AA63B3F1FF3F11D0013359
:102EC0005BB285F84530012019E08368002BDED025
:102ED0004FF0500383F31188BFF36F8FBFF34F8F11
:102EE000FEE76B6A0BB9012009E005F1240000F050
:102EF000B7FE38B144B10120206000E0002086F325
:102F0000118870BD0120FAE70120F8E7F0B585B01F
:102F1000019290B10F460446C1B100F0FFFF064692
:102F200000BB019B002B5ED04FF0500383F3118850
:102F3000BFF36F8FBFF34F8FFEE74FF0500383F364
:102F40001188BFF36F8FBFF34F8FFEE7036C002B29
:102F5000E3D04FF0500383F31188BFF36F8FBFF3BB
:102F60004F8FFEE700263EE039462046FFF7FFFC84
:102F7000013DA563236923B9FFF73EFA012005B09F
:102F8000F0BD04F1100000F06BFE0028F4D04FF00B
:102F9000E0234FF08052C3F8042DBFF34F8FBFF3EF
:102FA0006F8FE9E7FFF728FA0020E8E702A800F0B2
:102FB0009DFE012621E0002384F8443029E000230F
:102FC00084F845302BE02046FFF7E3FC00F026FDB7
:102FD00009E02046FFF7DDFC00F020FD2046FFF76A
:102FE0007EFC00283FD1FFF7E5F9A56B002DBBD192
:102FF000019B002BD6D0002ED8D0FFF7FDF900F0B2
:103000006BFCFFF7D7F994F844305BB2B3F1FF3FA4
:10301000D1D094F845305BB2B3F1FF3FCFD0FFF78A
:10302000EBF901A902A800F06DFE0028D1D12046DD
:10303000FFF755FC0028C6D0019904F1240000F0E8
:10304000DBFD2046FFF7A5FC00F0E8FC0028CAD114
:103050004FF0E0234FF08052C3F8042DBFF34F8FA1
:10306000BFF36F8FBFE7002089E770B584B001918F
:1030700058B10446036C8BB14FF0500383F31188B1
:10308000BFF36F8FBFF34F8FFEE74FF0500383F313
:103090001188BFF36F8FBFF34F8FFEE700F03EFF45
:1030A000054650B9019B5BB14FF0500383F3118883
:1030B000BFF36F8FBFF34F8FFEE70026354655E015
:1030C000064653E0013BA36323683BB123694BB938
:1030D000FFF792F90126304604B070BD01F070F898
:1030E000A060F3E704F1100000F0BAFD0028EFD073
:1030F0004FF0E0234FF08052C3F8042DBFF34F8F01
:10310000BFF36F8FE4E746B14FF0500383F31188AC
:10311000BFF36F8FBFF34F8FFEE7FFF76DF9DAE76D
:1031200002A800F0E3FD01252AE0002384F84430E2
:1031300032E0002384F8453034E0FFF73BF9A06823
:1031400000F0FCFE0646FFF757F93BE02046FFF78C
:1031500020FC00F063FC09E02046FFF71AFC00F0B9
:103160005DFC2046FFF7BBFB002842D1FFF722F9A8
:10317000A36B002BA6D1019B002BC4D0002DCFD078
:10318000FFF73AF900F0A8FBFFF714F994F8443080
:103190005BB2B3F1FF3FC8D094F845305BB2B3F1F6
:1031A000FF3FC6D0FFF728F901A902A800F0AAFD49
:1031B0000028D1D12046FFF792FB0028C6D0236813
:1031C000002BBAD0019904F1240000F015FD20462F
:1031D000FFF7DFFB00F022FC0028C7D14FF0E0230F
:1031E0004FF08052C3F8042DBFF34F8FBFF36F8FA2
:1031F000BCE70EB900266EE7FFF7DCF82046FFF7C4
:1032000057FB0146A06800F02DFFFFF7F5F8F1E746
:103210002DE9F843B0B10D4690460446D9B1FFF709
:10322000EFF9EFF311874FF0500383F31188BFF3E9
:103230006F8FBFF34F8FA66BCEB9002087F3118835
:10324000BDE8F8834FF0500383F31188BFF36F8F0D
:10325000BFF34F8FFEE7036C002BE0D04FF050031D
:1032600083F31188BFF36F8FBFF34F8FFEE794F89E
:1032700044904FFA89F929462046FFF778FB731EE0
:10328000A363B9F1FF3F06D009F101035BB284F8F3
:1032900044300120D2E723690BB90120CEE704F1C5
:1032A000100000F0DDFC30B1B8F1000F05D00120B6
:1032B000C8F80000C2E70120C0E70120BEE7000017
:1032C0000023072B0CD8074A52F833200AB10133E8
:1032D000F7E7044A42F8331002EBC302506070472C
:1032E000704700BF5C4E00200023072B0FD8084A10
:1032F00002EBC3025268824201D00133F5E7044A6F
:10330000002142F8331002EBC3025160704770474E
:103310005C4E002038B110B50446FFF7E5FF94F885
:1033200046304BB110BD4FF0500383F31188BFF30B
:103330006F8FBFF34F8FFEE72046FFF775FAF1E777
:1033400070B504460D461646FFF734F894F844303D
:103350005BB2B3F1FF3F0DD094F845305BB2B3F1EF
:10336000FF3F0BD0FFF748F8A36B5BB12046FFF798
:1033700010FB70BD002384F84430EDE7002384F88F
:103380004530EFE73246294604F1240000F04CFCBA
:10339000ECE7002301E0013001330278A52AFAD0DE
:1033A000C3F38F0070470000084B1B681B6823B9EC
:1033B000074B4FF0FF321A607047044B1B68DB6805
:1033C000DB685A68024B1A60704700BF0C4F002040
:1033D000A44E00202DE9F04780460D461746994639
:1033E000089EDDF824A00A9C9200A521206B13F012
:1033F0009FF9236B07F18042013A03EB820727F024
:103400000707A5B34FF0000CBCF10F0F09D815F852
:103410000C3004EB0C0282F8343013B10CF1010CC7
:10342000F2E7002384F84330372E00D93726E662CE
:10343000E66400252565201DFEF717FF04F118003E
:10344000FEF713FF2461C6F13806A6616462656564
:1034500084F858504A4641463846FEF77FFF2060C0
:10346000BAF1000F01D0CAF80040BDE8F087002390
:1034700084F83430D8E7000038B5002407E004EBC6
:10348000840293000E481844FEF7E4FE0134372C02
:10349000F5D90C4D2846FEF7DDFE0B4C2046FEF715
:1034A000D9FE0A48FEF7D6FE0948FEF7D3FE0948C2
:1034B000FEF7D0FE084B1D60084B1C6038BD00BFF6
:1034C000384F0020244F0020104F0020F44E0020E1
:1034D000E04E0020C84E00200C4F0020084F002076
:1034E00010B50446FEF766FF224A136801331360E5
:1034F000214B1B685BB1214B1B686BB91E4B1B68D2
:10350000DA6AE36A9A4207D81B4B1C6004E01A4B44
:103510001C601368012B29D0194A1368013313600A
:103520006364E06A174B1B68984201D9154B186019
:1035300000EB8000211D144B03EB8000FEF798FE8A
:10354000FEF75AFF0D4B1B687BB10B4B1B68DA6A09
:10355000E36A9A4209D24FF0E0234FF08052C3F859
:10356000042DBFF34F8FBFF36F8F10BDFFF784FFA4
:10357000D2E700BFC44E002098530020B84E002070
:10358000A84E0020BC4E0020384F002010B5044645
:1035900090F8593063B1012B11D0022B0ED04FF0AF
:1035A000500383F31188BFF36F8FBFF34F8FFEE794
:1035B000006BFFF739F92046FFF736F910BDFFF72A
:1035C00033F9FBE70F4B1B68D3B110B5FEF7F2FEE2
:1035D0000D4BDB68DC68201DFEF76EFE0B4A13689E
:1035E000013B1360074A1368013B1360FEF704FFB9
:1035F0002046FFF7CBFF034B1B68002BE6D110BD25
:10360000704700BFDC4E0020E04E0020C44E00207A
:1036100008B5FFF7D7FF074B1B68012BF9D94FF00F
:10362000E0234FF08052C3F8042DBFF34F8FBFF358
:103630006F8FEEE7384F002070B504460D46174BEC
:103640001E68174B18680430FEF736FEB4F1FF3FD2
:103650000DD03444124B1B685C60A64210D9114B4C
:1036600018680F4B19680431FEF70DFE70BD002D70
:10367000EFD00B4B196804310B48FEF7F9FDF5E765
:103680000A4B1868064B19680431FEF7FCFD084B1D
:103690001B68A342EAD9064B1C60E7E7C04E002036
:1036A00098530020084F0020C84E00200C4F0020E7
:1036B000A44E002010B5044613F014FC2046FDF77C
:1036C000BFFD02E02023235401300E28FAD9002345
:1036D0002354204410BD30B587B00B9C7CB10C9DA9
:1036E000B5B15C250495049D5C2D1AD04FF05003B4
:1036F00083F31188BFF36F8FBFF34F8FFEE74FF057
:10370000500383F31188BFF36F8FBFF34F8FFEE732
:103710004FF0500383F31188BFF36F8FBFF34F8FC8
:10372000FEE7049D0C9D2C63022485F8594000247B
:103730000394029505AC01940A9C0094FFF74AFE9D
:103740000C98FFF7CDFE059807B030BD2DE9F0438A
:1037500085B00746884614461E469000FEF7E2FFF5
:1037600008B381465C20FEF7DDFF0546A8B1C0F82E
:103770003090002380F85930039302900D9B019301
:103780000C9B00933346224641463846FFF722FE03
:103790002846FFF7A5FE012007E04846FFF744F85A
:1037A0004FF0FF3001E04FF0FF3005B0BDE8F0838F
:1037B000F8B5D0B104461D4B1B6883422DD0FEF7EF
:1037C000F9FD65691A4B1E681A4B1F68FEF714FE57
:1037D000B54224D0BD4224D0174B9D420ED0174B8A
:1037E0009D4220D0BDB1012018E04FF0500383F37B
:1037F0001188BFF36F8FBFF34F8FFEE7A36A0BB142
:1038000002200BE094F85830DBB2012B01D00320EA
:1038100004E0022002E0042000E00020F8BD0220C5
:10382000FCE70220FAE70420F8E700BF98530020E5
:103830000C4F0020084F0020C84E0020E04E002012
:1038400010B588B000240594069407AA06A905A817
:10385000FEF7E8FC059B0293069B01930094234628
:10386000079A17491748FFF736FF174B1860C0B182
:1038700000F020FD012815D14FF0500383F311888B
:10388000BFF36F8FBFF34F8F104B4FF0FF321A60B3
:103890000F4B01221A600F4B00221A60FEF724FE24
:1038A00003E00020B0F1FF3F01D008B010BD4FF0A1
:1038B000500383F31188BFF36F8FBFF34F8FFEE781
:1038C000F4AC010811360008A04E0020A44E0020E0
:1038D000B84E0020C04E0020024A13680133136026
:1038E000704700BF9C4E0020014B1868704700BF16
:1038F000C04E002008B5FEF783FE014B186808BDD6
:10390000C04E0020F8B53A4B1B68002B69D1394BEB
:103910001D6801351D60C5B9374B1B681B6843B175
:103920004FF0500383F31188BFF36F8FBFF34F8FB6
:10393000FEE7314A1168314B186810601960304A4F
:10394000136801331360FFF72FFD2E4B1B68AB424A
:103950003DD900272C4B1B68DB6A03EB83039A00DD
:103960002A4B9B58012B00D90127294B1B68002BA0
:103970003CD001273AE001271F4B1B681B6843B36B
:103980001D4B1B68DB68DC6863689D4226D3261DDF
:103990003046FEF791FCA36A1BB104F11800FEF754
:1039A0008BFCE36A1B4A1268934201D9194A1360DF
:1039B00003EB83039A00314614481044FEF758FC89
:1039C000E26A114B1B68DB6A9A42D4D2D4E7002723
:1039D000D2E70C4B4FF0FF321A60BBE7094A136085
:1039E000B8E70D4A13680133136000273846F8BD65
:1039F0009C4E0020C04E00200C4F0020084F00209D
:103A0000AC4E0020A44E002098530020384F0020D8
:103A1000B04E0020BC4E0020B44E002038B5354BCF
:103A20001B6843B94FF0500383F31188BFF36F8FC6
:103A3000BFF34F8FFEE7FEF7BDFC2E4B1A68013A2D
:103A40001A601B68002B4FD12B4B1B680BB900244D
:103A50004BE00024294B1B681BB3284BDB68DC6858
:103A600004F11800FEF728FC251D2846FEF724FC6B
:103A7000E06A234B1B68984201D9214B186000EB88
:103A8000800029461F4B03EB8000FEF7F1FBE26A42
:103A90001D4B1B68DB6A9A42DCD31C4B01221A6067
:103AA000D8E70CB1FFF780FC194B1C6884B9174BA1
:103AB0001C68D4B14FF0E0234FF08052C3F8042DBE
:103AC000BFF34F8FBFF36F8F01240EE0013C07D08F
:103AD000FFF718FF0028F9D00C4B01221A60F5E718
:103AE0000B4B00221A60E2E70024FEF785FC20461B
:103AF00038BD00BF9C4E0020C44E0020F44E002074
:103B0000BC4E0020384F002098530020B04E0020BB
:103B1000B44E002010B5A8B10446104B1B6843B149
:103B20004FF0500383F31188BFF36F8FBFF34F8FB4
:103B3000FEE7FFF7D1FE00212046FFF77DFDFFF7EE
:103B40006DFF48B94FF0E0234FF08052C3F8042DC9
:103B5000BFF34F8FBFF36F8F10BD00BF9C4E00208F
:103B6000204B1B681BB1204B01221A6070471E4B73
:103B700000221A601D4B1B6803EB83018A001C495D
:103B80008A585AB90BB1013BF6E74FF0500383F363
:103B90001188BFF36F8FBFF34F8FFEE7084603EB2B
:103BA00083018A00024451684968516003EB830C29
:103BB0004FEA8C020832024491420BD003EB83029D
:103BC00091000B4A0A445268D1680A4A1160074AB8
:103BD00013607047486862469100054A0A44506085
:103BE000ECE700BF9C4E0020B04E0020BC4E0020F1
:103BF000384F00209853002058B110B50C46094AA0
:103C000011681831FEF73FFB01212046FFF714FD34
:103C100010BD4FF0500383F31188BFF36F8FBFF3D4
:103C20004F8FFEE79853002038B570B10D4614460B
:103C30000A4A11681831FEF71BFB0CB14FF0FF3533
:103C400021462846FFF7F8FC38BD4FF0500383F3B8
:103C50001188BFF36F8FBFF34F8FFEE7985300209B
:103C600038B5C368DC6824B304F118052846FEF7AC
:103C700023FB184B1B682BBB251D2846FEF71CFB9E
:103C8000E06A154B1B68984201D9134B186000EB92
:103C900080002946114B03EB8000FEF7E9FAE26A47
:103CA0000F4B1B68DB6A9A4211D901200D4B18603B
:103CB00038BD4FF0500383F31188BFF36F8FBFF30C
:103CC0004F8FFEE729460848FEF7D2FAE7E70020C3
:103CD000EEE700BF9C4E0020BC4E0020384F002075
:103CE00098530020B04E0020F44E0020034B1B6878
:103CF0000360034B1B684360704700BFAC4E00205D
:103D0000C04E0020F8B5C8B10C460546F9B1FEF723
:103D100051FB1B4B19686B68C81A2268B2F1FF3F50
:103D200026D0184E36682F68B74201D08B4224D96E
:103D3000824215D80023236001241AE04FF050037B
:103D400083F31188BFF36F8FBFF34F8FFEE74FF000
:103D5000500383F31188BFF36F8FBFF34F8FFEE7DC
:103D60005B1A134423602846FFF7C0FF002400E0DD
:103D70000024FEF741FB2046F8BD0124F9E700BF0F
:103D8000C04E0020AC4E0020014B01221A6070474B
:103D9000B04E002070B50C4616460546D0B12560E1
:103DA00005F134026260EA6A22612A6BE2616A6CA0
:103DB000A260EA6C62610022A261052B19D0124A4E
:103DC0001268AA4209D02373032B09D0B6B9002385
:103DD000238470BD0C4A1568E1E700232373F5E7DF
:103DE000FFF77AFDAB6A0BB102232373FFF716FED0
:103DF000ECE72846FFF7DCFC2073E7E7286BFFF7CA
:103E0000C8FA2084E5E700BF985300202DE9F04769
:103E10000C683CB307460D4690464B685B684B60A8
:103E200001F108094B4504D06B68D3F80CA00024BD
:103E300010E05B684B60F7E76B68DE6804EBC40179
:103E40004346012207EB81013046FFF7A3FF01340F
:103E5000B24507D06B68596869608945ECD14B68F9
:103E60006B60E9E72046BDE8F0870000F8B507463B
:103E70000C461646FFF730FD224B1B68A3423BD889
:103E800038240025013C05EBC50004EB8401012228
:103E90001D4B03EB810107EB8000FFF7B7FF0544E3
:103EA000002CEFD105EBC500184B1968022207EB77
:103EB0008000FFF7ABFF054405EBC500144B196804
:103EC000022207EB8000FFF7A1FF054405EBC500C8
:103ED0000422104907EB8000FFF798FF2C1804EB31
:103EE000C40003220C4907EB8000FFF78FFF044456
:103EF0001EB10023336000E00024FFF78FFD204651
:103F0000F8BD00BFC44E0020384F00200C4F0020E9
:103F1000084F0020E04E0020C84E0020054B1B68D3
:103F200033B1054B1B680BB100207047022070476E
:103F300001207047B84E00209C4E002000283ED043
:103F400038B50446C36A204A1268D26A93422ED218
:103F50008269002A05DB1C4A1268D26AC2F1380263
:103F60008261616903EB8303184A02EB8303994280
:103F700005D0154B1B68DB6AE362012038BD251DA7
:103F80002846FEF799F9104B1B68D86AE062104B7F
:103F90001B68984201D90E4B186000EB800029463F
:103FA0000A4B03EB8000FEF763F90120E6E7C26CE1
:103FB000054B1B68DB6A9A4203D30020DEE7002032
:103FC00070470120DAE700BF98530020384F0020E7
:103FD000BC4E002000283BD038B504461E4B1B6861
:103FE000834208D04FF0500383F31188BFF36F8FE3
:103FF000BFF34F8FFEE7036D43B94FF0500383F3D8
:104000001188BFF36F8FBFF34F8FFEE7013B03654E
:10401000C16AC26C91421DD00BB1002038BD051D94
:104020002846FEF749F9E06CE062C0F13803A3616D
:104030000A4B1B68984201D9084B186000EB8000BE
:104040002946074B03EB8000FEF712F90120E5E754
:10405000002070470020E1E798530020BC4E00206C
:10406000384F0020002846D038B50446036D43B9C8
:104070004FF0500383F31188BFF36F8FBFF34F8F5F
:10408000FEE7C26C8A4200D20A46E16A914201D040
:10409000012B00D038BD184B1B68A34222D0E2622E
:1040A000A369002B02DBC2F13802A261626901EB55
:1040B0008101124B03EB81039A42EBD1251D284667
:1040C000FEF7FAF8E06A0E4B1B68984201D90C4BD8
:1040D000186000EB80002946084B03EB8000FEF7D8
:1040E000C7F8D7E74FF0500383F31188BFF36F8F02
:1040F000BFF34F8FFEE7704798530020384F0020E2
:10410000BC4E00202DE9F04383B006460023037027
:10411000294B1C68186800EBC0008000FEF702FB0A
:10412000002845D0804600222146FFF79FFE074623
:10413000002514E04FF0580961683046FFF7BAFADD
:1041400006462369228CA168019100924A461B49C8
:1041500012F07AF83046FDF773F806440135BD4297
:1041600023D205EBC50408EB8404237B042B16D86B
:1041700001A252F823F000BF35410008A541000814
:104180008D41000893410008994100084FF0420911
:10419000D2E74FF05309CFE74FF04409CCE74FF097
:1041A0000009C9E74FF05209C6E74046FEF73CFB5D
:1041B00003B0BDE8F08300BFC44E0020FCAC010892
:1041C000054B1B6823B1044B1A68136D013313654B
:1041D000014B1868704700BF98530020064B1A68BF
:1041E00013682BB90123036023B9D368186870479B
:1041F0000023F8E7002070479C54002008B5416078
:10420000006191420CD8D21A83699A4201D30120ED
:1042100008BD011D094B1868FEF735F80020F7E7C7
:104220009A4201D2994206D2011D054B1868FEF749
:104230002AF80020ECE70120EAE700BF98540020AC
:104240009C54002030B583B0FEF7B4F8114B1B68C6
:104250001BB1FEF7D1F803B030BD0F4D2846FDF776
:10426000F9FF0E4C2046FDF7F5FF0D4B1D600D4B81
:104270001C60002300930C4B0C4A10210A20FEF70F
:1042800012FC044B18600028E3D00949FFF718F826
:10429000DFE700BF94540020B4540020A054002055
:1042A0009C540020985400209C530020EC53002084
:1042B0000CAD010810B588B0FFF7C4FF124B1B68A6
:1042C000CBB100240594069407AA06A905A8FDF71A
:1042D000B5FF059B0293069B01930223009323469F
:1042E000079A0A490A48FFF7F6F90A4B186010B115
:1042F000012008B010BD4FF0500383F31188BFF3C5
:104300006F8FBFF34F8FFEE79454002014AD010868
:104310001946000890540020B8B19C46034618483E
:10432000006858B300B585B0009101920293052949
:104330001CDCFFF7F3FD022810D000231A46694663
:104340000F480068FEF75EFC15E04FF0500383F362
:104350001188BFF36F8FBFF34F8FFEE70023069ADC
:10436000694607480068FEF74DFC04E000236246FA
:104370006946FEF70BFD05B05DF804FB00207047B1
:104380009454002070B582B01B4B1B681A6862B34E
:10439000DB681E68DC68251D2846FDF78DFF236A53
:1043A0002046984794F8283013F0040FECD0A36906
:1043B00033449E4207D26360246129460E4B18683D
:1043C000FDF761FFE0E7002100910B4632462046F1
:1043D000FFF7A2FF0028D7D14FF0500383F31188D5
:1043E000BFF36F8FBFF34F8FFEE7044A1068024997
:1043F0000860136002B070BD9C54002098540020E7
:1044000038B50546FFF770FA0446074B1B68834230
:1044100005D800232B60044B1C60204638BDFFF7F5
:10442000B1FF01232B60F6E78C54002070B582B0F9
:1044300006460D4617490968C968CC68201DFDF776
:104440003BFF94F828C01CF0040F08D12CF0010C9D
:1044500084F828C0236A2046984702B070BDA1693D
:1044600033462A4631442046FFF7C8FE0028F1D0E3
:10447000002100910B4632462046FFF74DFF0028F1
:10448000E8D14FF0500383F31188BFF36F8FBFF370
:104490004F8FFEE79C54002070B582B006460C4654
:1044A000FFF71AFA01A8FFF7ABFF019B33BB0546E4
:1044B000E4B9B04213D22246711B124B1868FEF7C2
:1044C0003FFFFFF7ABFAD8B94FF0E0234FF080522F
:1044D000C3F8042DBFF34F8FBFF36F8F10E0FFF7CA
:1044E0009DFA29463046FFF7A1FF09E0064A126807
:1044F00012680AB90124DEE71C46DCE7FFF78EFAF2
:1045000002B070BD945400209854002010B588B0BB
:1045100002E0049B002B0FDA002204A93D4B18682F
:10452000FEF7F4FC002873D0049B002BF1DA079906
:104530000698059B9847ECE7069C636913B1201D1C
:10454000FDF7BAFE03A8FFF75BFF049B092BE3D836
:10455000DFE803F00505053037500505303794F8DE
:10456000283043F0010384F82830059BA1690246F6
:1045700019442046FFF742FE0028CDD0236A20468A
:10458000984794F8283013F0040FC5D0A269002191
:1045900000910B46059802442046FFF7BDFE002817
:1045A000BAD14FF0500383F31188BFF36F8FBFF37D
:1045B0004F8FFEE794F8283023F0010384F8283069
:1045C000AAE794F8283043F0010384F828300599CD
:1045D000A16131B10346024601442046FFF70EFEB9
:1045E0009AE74FF0500383F31188BFF36F8FBFF347
:1045F0004F8FFEE794F8283013F0020F04D023F019
:10460000010384F8283087E72046FEF70DF983E799
:1046100008B010BD9454002000B583B001A8FFF786
:10462000DDFD0199FFF738FFFFF770FFF6E70000A7
:1046300008B50B4B1A6842F400721A601A6842F40B
:1046400080621A601A6842F480721A60032000F0D7
:1046500037FC0F20FDF7B6F8FDF792F8002008BDF3
:10466000003C0240034A1168034B1B780B44136063
:10467000704700BFC85400200C000020014B186890
:10468000704700BFC8540020002800F0A18038B552
:10469000044690F82030D3B12268136843F0010338
:1046A0001360FFF7EBFF054623685A6812F0010F0D
:1046B00010D1FFF7E3FF401B0A28F5D9636A43F4E2
:1046C00000336362052384F82030012038BDFCF7F5
:1046D0008BFEE1E71A6822F002021A60FFF7CEFFB4
:1046E000054623685A6812F0020F0DD0FFF7C6FF87
:1046F000401B0A28F5D9636A43F40033636205233B
:1047000084F820300120E1E7227E012A3DD01A689A
:1047100022F080021A60637E012B3BD0226813686E
:1047200023F040031360A37E012B39D02268136865
:1047300023F020031360E37E012B37D02268136837
:1047400043F010031360237F012B35D022681368D8
:1047500023F008031360637F012B33D022681368B2
:1047600023F004031360A368E26813432269134330
:10477000626913436268013A21681343CB610020E8
:104780006062012384F82030A0E71A6842F08002BA
:104790001A60C0E72268136843F040031360C2E761
:1047A0002268136843F020031360C4E7226813688B
:1047B00023F010031360C6E72268136843F0080370
:1047C0001360C8E72268136843F004031360CAE764
:1047D0000120704790F82030013BDBB2012B05D956
:1047E000436A43F4802343620120704730B5464B4F
:1047F000D3F8002242F00102C3F80022D3F80022CD
:1048000022F47C52C3F80022D3F80022486A42EA1C
:104810000022C3F800224A6902F01F02012000FAB8
:1048200002F2D3F81C026FEA020C20EA0200C3F87D
:104830001C02CB69C3B9344BD3F80C020CEA00005C
:10484000C3F80C028C884869CD6844EA05444830B6
:1048500043F830408C68088840EA04404C6904F111
:10486000480E03EBCE035860CB69012B1ED08B6939
:10487000002B33D12448D0F804320CEA0303C0F8EB
:1048800004320B698BBB2048D0F814320CEA0303C6
:10489000C0F814320B6A012B2ED01B4AD2F800321A
:1048A00023F00103C2F80032002030BD164BD3F8CC
:1048B0000C021043C3F80C028C8848690D6844EA66
:1048C0000544483043F8304088894C698D6840EA97
:1048D0000540483403EBC4035860C8E70A48D0F8E1
:1048E00004321343C0F80432CBE70748D0F814323F
:1048F0001343C0F81432CDE70349D1F81C321343F7
:10490000C1F81C32C9E700BF0064004070B504461E
:1049100090F82050EDB2012D06D0436A43F40023F5
:1049200043620125284670BD022380F820300268CA
:10493000136823F001031360FFF7A0FE0646236807
:104940005B6813F0010F0CD0FFF798FE831B0A2B56
:10495000F5D9636A43F400336362052384F8203099
:10496000E0E700256562DDE730B590F820C0046817
:10497000A4680CF1FF3C5FFA8CFCBCF1010F6BD812
:1049800014F0E05F62D0C4F3016CBCF1020F05D9F2
:10499000436A43F400034362012062E0012404FA05
:1049A0000CF41C608B68002B3DD10D68CB6804684B
:1049B00043EA45550CF118031B01E55003680C69E7
:1049C0000CF1180E03EB0E135C600B7D012B35D040
:1049D000D17993791B0443EA0163517943EA0123B6
:1049E00014790168234301EB0C11C1F88C31D178A3
:1049F00093781B0443EA0163517843EA0123117859
:104A000002680B4302EB0C12C2F8883102680CF109
:104A1000180C4FEA0C1C52F80C3043F0010342F81A
:104A20000C3000201DE04C6843EAC403CC682343EB
:104A30000CF11804240105682B51BFE7036803EB50
:104A40000E13596841F480715960C1E7436A43F419
:104A500000134362012004E0436A43F4802343626D
:104A6000012030BD90F82030013BDBB2012B01D991
:104A7000002070470368986810F0806000D0012023
:104A80009A6812F0006F00D001309B6813F0805FCD
:104A9000EFD00130704790F820C00CF1FF3C5FFA76
:104AA0008CFCBCF1010F00F2958030B451B9046860
:104AB000E46814F0030F10D1436A43F40013436217
:104AC000012077E00468246914F0030F05D1436ADC
:104AD00043F40013436201206CE001F11B04240144
:104AE00005682C5904F004049460002C64D101F191
:104AF0001B04240105682C59640D1460046801F13D
:104B00001B0C4FEA0C1C54F80C4004F00204D46057
:104B100004686444646804F00F0414610468644425
:104B20006468C4F307249461046864446468240CD2
:104B30005461026802EB0112D2F8B8211A700268BF
:104B400002EB0112D2F8B821C2F307225A700268B0
:104B500002EB0112D2F8B821C2F307429A70026840
:104B600002EB0112D2F8B821120EDA70026802EBE1
:104B70000112D2F8BC211A71026802EB0112D2F8BC
:104B8000BC21C2F307225A71026802EB0112D2F86B
:104B9000BC21C2F307429A71026802EB0112D2F8FB
:104BA000BC21120EDA7179B90268D36843F0200390
:104BB000D360002030BC704701F11B04240105685C
:104BC0002C59E408546099E70268136943F0200304
:104BD0001361EEE7436A43F4802343620120704788
:104BE00090F82030013BDBB2012B05D9436A43F436
:104BF0008023436201207047026853690B4353616D
:104C000000207047704770477047704770472DE924
:104C1000F84F054603685C69D3F804809F68D3F8B1
:104C20000CB0D3F810A0D3F8189014F001063BD0C4
:104C300017F0010616D001229A6017F0020F08D172
:104C400017F0040F0CD117F0080606D04FF4805669
:104C500008E001F0E5FE002604E0FFF7D3FF01E0E5
:104C60004FF4006617F4807F0DD02B684FF48072EC
:104C70009A6017F4007F40F0868017F4806F00F090
:104C8000868046F4005617F4803F0DD02B684FF411
:104C900080329A6017F4003F40F0838017F4802F31
:104CA00000F0838046F4004614F0080F07D01BF094
:104CB000100F04D046F400762B681022DA6014F04E
:104CC000040F02D01BF0080F79D114F0020F04D0AA
:104CD0002B68DB6813F0030F78D114F0400F07D076
:104CE0001AF0100F04D046F480662B6810221A6167
:104CF00014F0200F02D01AF0080F6BD114F0100F2F
:104D000004D02B681B6913F0030F6AD114F4003F21
:104D100002D018F0100F68D114F4803F02D018F0C0
:104D2000080F69D114F4004F7AD018F0040F74D032
:104D300014F4807F04D019F0010F01D046F0010671
:104D400014F4007F04D019F0020F01D046F00206DF
:104D500014F4806F04D019F0040F01D046F004065B
:104D600014F4006F59D019F0700956D0B9F1400F02
:104D700065D058D8B9F1200F5ED0B9F1300F42D1CB
:104D800046F0200644E0284601F066FE7BE717F473
:104D9000006F02D046F4804675E72846FFF733FFE0
:104DA00071E7284601F074FE7EE717F4002F02D069
:104DB00046F4803678E72846FFF726FF74E72B682D
:104DC0000822DA60284601F0ABFE7EE7284601F0B3
:104DD0007BFE82E72B6808221A61284601F0CEFE8E
:104DE0008CE7284601F09DFE90E72B6810225A6060
:104DF0002846FFF70AFF8FE72B6808225A602846EB
:104E0000FFF704FF8EE7B9F1100F01D146F0080655
:104E10002A68936923F0700393612B6804225A6017
:104E20009EB9BDE8F88FB9F1500F0BD0B9F1600F02
:104E3000EED146F48076EBE746F01006E8E746F060
:104E40004006E5E746F08006E2E76B6A33436B62B3
:104E5000284601F095FEE4E7002808DB0901C9B205
:104E600000F1604000F5614080F80013704700F0E9
:104E70000F000901C9B2014B1954704714ED00E04D
:104E800000B500F00700C0F1070CBCF1040F28BF0B
:104E90004FF0040C031D062B0FD9C31E4FF0FF3E2D
:104EA0000EFA0CF021EA000199400EFA03FE22EA04
:104EB0000E0241EA02005DF804FB0023EEE7000069
:104EC000074AD36823F4E0631B041B0C000200F4C0
:104ED000E060034343F0BF6343F40033D3607047A3
:104EE00000ED00E010B50446054BD868C0F3022081
:104EF000FFF7C6FF01462046FFF7AEFF10BD00BF1B
:104F000000ED00E0002807DB00F01F02400901234C
:104F10009340024A42F82030704700BF00E100E0B1
:104F200030B405682C6824F480242C600468636025
:104F30008368402B05D0036899600368DA6030BC51
:104F4000704703689A600368D960F8E710B4036893
:104F5000D9B210390C4AA2FB014212090B4CA25CD7
:104F6000C2655F2909D923F47F7323F00303043357
:104F70008365806D5DF8044B704723F47F7323F0E5
:104F800003038365F5E700BFABAAAAAA1CAD01081D
:104F9000836A826992B9012B0AD0022B02D00BB12D
:104FA00000207047C36A13F0807F28D1002070472B
:104FB000C36AB3F1C07F24D000207047B2F5005F10
:104FC00009D0022B25D9032B25D1C36A13F0807F8A
:104FD00023D100207047032B03D8DFE803F014042B
:104FE000140A00207047C36A13F0807F0DD100209F
:104FF0007047C36AB3F1C07F09D000207047012019
:105000007047012070470120704701207047012040
:105010007047012070470020704701207047000052
:1050200070B50446FFF72AFB002C5BD0054602232F
:1050300084F83530002384F834302268136823F074
:105040000103136023681A6812F0010F0AD0FFF7FA
:1050500015FB431B052BF5D920236365032084F83A
:10506000350070BD1A68204911406268A06802438B
:10507000E06802432069024360690243A069024379
:10508000E0690243206A02430A43616A04291ED090
:105090001A602668756925F00705636A1D43042BAD
:1050A00007D1A36A1D43E36A1BB12046FFF770FFD7
:1050B00090B975612046FFF749FFE26D3F239340A9
:1050C000836000206065012384F83530C9E7E16A18
:1050D000206B01430A43DBE740236365012084F82A
:1050E0003500BEE70120BCE73F8010F038B504462C
:1050F000856D90F8340001282BD0012084F834000D
:1051000094F83500C0B2012804D0002384F834306C
:10511000022038BD022084F835000020606520465A
:10512000FFF7FEFEE26D3F239340AB6022681368F9
:1051300043F016031360236C23B12268136843F015
:10514000080313602268136843F001031360002012
:10515000DFE70220DDE770B50446866DFFF78EFAC3
:1051600094F83530DBB2022B06D080236365002330
:1051700084F83430012070BD05462268136823F09E
:10518000160313602268536923F080035361236C74
:10519000E3B12268136823F00803136022681368E0
:1051A00023F00103136023681B6813F0010F11D073
:1051B000FFF764FA431B052BF5D920236365032011
:1051C00084F83500002384F83430D4E7A36C002B36
:1051D000DFD1E3E7E26D3F239340B360012384F81E
:1051E0003530002084F83400C5E790F83530DBB264
:1051F000022B03D08023436501207047052380F8EC
:1052000035300268136823F00103136000207047F3
:10521000F0B583B0044600230193724B1D68724BB6
:10522000A3FB0535AD0A876D3E68C26D0823934028
:10523000334210D003681A6812F0040F0BD01A68BA
:1052400022F004021A60C26D08239340BB60436DD4
:1052500043F001034365E26D01239340334209D0DB
:105260002268526912F0800F04D0BB60636D43F076
:1052700002036365E26D04239340334209D0226840
:10528000126812F0020F04D0BB60636D43F0040398
:105290006365E26D10239340334224D02268126884
:1052A00012F0080F1FD0BB6023681A6812F4802F19
:1052B0000DD01B6813F4002F04D1236C9BB1204642
:1052C000984710E0A36C73B1204698470BE01A682A
:1052D00012F4807F03D11A6822F008021A60236C4E
:1052E0000BB120469847E26D20239340334255D0BE
:1052F0002268126812F0100F50D0BB6094F835305D
:10530000DBB2052B0ED023681A6812F4802F33D03D
:105310001B6813F4002F2AD1636C002B3ED020466B
:1053200098473BE02268136823F016031360226855
:10533000536923F080035361236CA3B1226813687F
:1053400023F008031360E26D3F239340BB60012309
:1053500084F83530002384F83430236D002B3FD09F
:10536000204698473CE0A36C002BE7D1EBE7E36BCA
:10537000A3B12046984711E01A6812F4807F09D142
:105380001A6822F010021A60012384F835300023D5
:1053900084F83430E36B0BB120469847636DFBB162
:1053A000636D13F0010F17D0052384F835302268A0
:1053B000136823F001031360019B01330193AB4297
:1053C00004D823681B6813F0010FF5D1012384F87A
:1053D0003530002384F83430E36C0BB12046984715
:1053E00003B0F0BD04000020B5814E1B90F83500DD
:1053F0007047000000230F2B00F2E98070B582B0E7
:1054000065E085684FEA430E032404FA0EF425EAAA
:105410000405CC6804FA0EF42C438460446824EA42
:1054200002044A68C2F300129A40224342605CE0E0
:10543000DC08083450F8242003F00705AD004FF0D5
:105440000F0E0EFA05FE22EA0E0E0A69AA4042EA83
:105450000E0240F824205CE0072200E0002202FA5D
:105460000EF22A4302345A4D45F82420594A9468D2
:105470006FEA0C0224EA0C054E6816F4801F01D076
:105480004CEA0405534CA560E46802EA04054E6842
:1054900016F4001F01D04CEA04054E4CE560646828
:1054A00002EA04054E6816F4003F01D04CEA0405F8
:1054B000484C6560246822404D6815F4803F01D057
:1054C0004CEA0402434C226001330F2B7DD80122A9
:1054D0009A400C6804EA020C32EA0404F4D14C68E5
:1054E00004F00304013C012C8BD94A6802F003024A
:1054F000032A09D0C4685D000322AA4024EA0204FA
:105500008A68AA402243C2604A6802F00302022A63
:105510008ED004684FEA430E032202FA0EF224EA08
:1055200002044A6802F0030202FA0EF22243026009
:105530004A6812F4403FC7D000220192264A546CB8
:1055400044F480445464526C02F480420192019A03
:105550009C08A51C1E4A52F8255003F0030E4FEA82
:105560008E0E0F2202FA0EF225EA02051B4A904225
:105570003FF474AF02F5806290421AD002F5806267
:10558000904218D002F58062904216D002F58062F7
:10559000904214D002F58062904212D002F58062EF
:1055A000904210D002F5806290423FF455AF08223D
:1055B00055E7012253E7022251E703224FE7042275
:1055C0004DE705224BE7062249E702B070BD704760
:1055D00000380140003C0140003802400000024019
:1055E0000AB181617047090481617047436901EA2A
:1055F000030221EA030141EA024181617047000090
:10560000002800F0E08170B582B00446036813F012
:10561000010F3BD09F4B9B6803F00C03042B2CD055
:105620009C4B9B6803F00C03082B21D06368B3F5F7
:10563000803F4FD0B3F5A02F52D0964B1A6822F47A
:1056400080321A601A6822F480221A606368002B84
:1056500050D0FFF713F805468E4B1B6813F4003F3C
:1056600014D1FFF70BF8401B6428F5D90320B1E1F2
:10567000884B5B6813F4800FD8D0864B1B6813F4FB
:10568000003F03D06368002B00F09F81236813F074
:10569000020F54D07F4B9B6813F00C0F3ED07D4B14
:1056A0009B6803F00C03082B33D0E368002B68D011
:1056B000794B01221A60FEF7E1FF0546754B1B6826
:1056C00013F0020F54D1FEF7D9FF401B0228F5D981
:1056D00003207FE16F4A136843F480331360B5E71A
:1056E0006C4B1A6842F480221A601A6842F48032C5
:1056F0001A60ABE7FEF7C2FF0546664B1B6813F462
:10570000003FC3D0FEF7BAFF401B6428F5D9032041
:1057100060E1604B5B6813F4800FC6D15D4B1B6882
:1057200013F0020F03D0E368012B40F05081594A77
:10573000136823F0F803216943EAC1031360236867
:1057400013F0080F42D063696BB3534B0122C3F8C7
:10575000802EFEF793FF05464E4B5B6F13F0020F52
:1057600034D1FEF78BFF401B0228F5D9032031E12D
:10577000484A136823F0F803216943EAC103136020
:10578000DDE7454B00221A60FEF778FF0546414BE6
:105790001B6813F0020FD2D0FEF770FF401B0228E7
:1057A000F5D9032016E13C4B0022C3F8802EFEF70A
:1057B00065FF0546374B5B6F13F0020F06D0FEF70F
:1057C0005DFF401B0228F5D9032003E1236813F095
:1057D000040F77D02F4B1B6C13F0805F33D1002365
:1057E00001932C4B1A6C42F080521A641B6C03F02C
:1057F00080530193019B0125284B1B6813F4807F84
:1058000023D0A368012B34D0052B38D0214B1A6F3D
:1058100022F001021A671A6F22F004021A67A368C5
:10582000002B3DD0FEF72AFF06461A4B1B6F13F0E4
:10583000020F46D1FEF722FF801B41F288339842C7
:10584000F3D90320C6E00025D6E7144A136843F4D1
:1058500080731360FEF712FF0646104B1B6813F4AB
:10586000807FCED1FEF70AFF801B0228F5D90320E6
:10587000B0E0084A136F43F001031367CFE7054B0D
:105880001A6F42F004021A671A6F42F001021A6797
:10589000C5E700BF003802400000474200700040EA
:1058A000FEF7ECFE0646524B1B6F13F0020F08D0BA
:1058B000FEF7E4FE801B41F288339842F3D90320BF
:1058C00088E0EDB9A369002B00F08380484A926814
:1058D00002F00C02082A51D0022B17D0454B0022AF
:1058E0001A66FEF7CBFE0446414B1B6813F0007F9F
:1058F00042D0FEF7C3FE001B0228F5D9032069E061
:105900003B4A136C23F080531364DBE7394B0022CE
:105910001A66FEF7B3FE0546354B1B6813F0007F91
:1059200006D0FEF7ABFE401B0228F5D9032051E05C
:10593000E369226A1343626A43EA8213A26A520845
:10594000013A43EA0243E26A43EA0263284A5360A7
:10595000284B01221A66FEF791FE0446244B1B6871
:1059600013F0007F06D1FEF789FE001B0228F5D94F
:1059700003202FE000202DE000202BE0012B2BD076
:105980001B4B5B6803F48001E269914226D103F06E
:105990003F02216A8A4223D1616A47F6C0721A40E7
:1059A000B2EB811F1ED103F44031A26A5208013AC2
:1059B000B1EB024F18D103F07063E26AB3EB026FF0
:1059C00014D1002006E001207047012002E00120F0
:1059D00000E0002002B070BD0120FBE70120F9E7E4
:1059E0000120F7E70120F5E70120F3E70120F1E7C7
:1059F000003802400000474208B5334B9B6803F073
:105A00000C03042B5BD0082B5BD12F4B5A6802F0A0
:105A10003F025B6813F4800F2CD02B4B5868C0F307
:105A200088104FEA401CBCEB000C6EEB0E0E4FEAE8
:105A30008E1343EA9C634FEA8C11B1EB0C0163EBCC
:105A40000E03DB0043EA5173C90011EB000C43F174
:105A50000003590200234FEA4C2041EADC51FBF7D6
:105A600093F8194B5B68C3F3014301335B00B0FB50
:105A7000F3F027E0144B5868C0F388104FEA401C3D
:105A8000BCEB000C6EEB0E0E4FEA8E1343EA9C63E8
:105A90004FEA8C11B1EB0C0163EB0E03DB0043EA20
:105AA0005173C90011EB000C43F10003990200236C
:105AB0004FEA8C2041EA9C51FBF766F8D1E7034896
:105AC00000E0034808BD00BF0038024000127A0021
:105AD0000024F400002800F09B8070B50D460446B9
:105AE0004F4B1B6803F007038B4208D2CBB24C4AE2
:105AF0001370136803F007038B4240F08B80236818
:105B000013F0020F17D013F0040F04D0454A936826
